:100000000C9437010C945F010C945F010C945F0118
:100010000C945F010C945F010C945F010C945F01E0
:100020000C945F010C945F010C94E4160C94B215CF
:100030000C945F010C945F010C945F010C945F01C0
:100040000C945F010C945F010C945F010C945F01B0
:100050000C945F010C945F010C945F010C947B196C
:100060000C945F010C94D7100C9409110C945F014F
:100070000C945F010C945F010C945F010C945F0180
:100080000C945F010C945F010C945F010C945F0170
:100090000C945F010C945F010C945F010C945F0160
:1000A0000C945F010C945F010C945F0172756E2DCE
:1000B0006272696467650A000A000A00302E302EF9
:1000C000302E30003132372E302E302E3100080BDA
:1000D0000002020201000904000001020200000502
:1000E0002400100105240101010424020605240650
:1000F00000010705810310004009040100020A0005
:1001000000000705020240000007058302400000CE
:1001100000C18081C1120100020200004041234160
:1001200080000101020001120100020000004041B4
:1001300023418000010102000141726475696E6F04
:10014000204C4C430041726475696E6F2059756E86
:10015000000403090400000000000000002A2B280E
:10016000000000000000000000000000000000008F
:1001700000000000002C9EB4A0A1A2A434A6A7A554
:10018000AE362D3738271E1F20212223242526B3E3
:1001900033B62EB7B89F8485868788898A8B8C8DE5
:1001A0008E8F909192939495969798999A9B9C9DF7
:1001B0002F3130A3AD350405060708090A0B0C0DD5
:1001C0000E0F101112131415161718191A1B1C1DD7
:1001D000AFB1B0B50009040200010300000009211D
:1001E00001010001226500070584034000010501AB
:1001F0000902A1010901A1008501050919012903CD
:10020000150025019503750181029501750581038E
:1002100005010930093109381581257F75089503D5
:100220008106C0C005010906A1018502050719E084
:1002300029E71500250175019508810295017508CA
:1002400081039506750815002565050719002965C0
:100250008100C000440545065C09FB0A030B0A0B3C
:10026000A20DA70E750F3911C211A81BFF0A112488
:100270001FBECFEFDAE0DEBFCDBF11E0A0E0B1E0FE
:10028000E8E7FDE302C005900D92AC3AB107D9F75B
:1002900023E0ACEAB1E001C01D92A136B207E1F75C
:1002A00012E0CCE6D2E004C02297FE010E940B1CB3
:1002B000C435D107C9F70E9464190C94AF1E0C9481
:1002C0000000DC01ED91FC910190F081E02D09949A
:1002D00081E008950895CF93DF9300D01F92CDB7AA
:1002E000DEB7AB01DC01ED91FC910680F781E02DDA
:1002F00019821A821B8220E0BE016F5F7F4F099531
:100300000F900F900F90DF91CF910895579A20E8AA
:10031000FC0122832BE230E03483238308958BB9E0
:1003200000C000C0001447FF6BB900C000C000143B
:100330006BB900C000C0001408958BB900C000C0A4
:10034000001445FF6BB900C000C000146BB900C0B9
:1003500000C0001408958BB900C000C0001447FF0E
:100360006BB900C000C000146BB900C008958BB910
:1003700000C000C0001447FF6BB900C000C00014EB
:100380006BB900C000C008958BB900C000C0001454
:1003900046FF6BB900C000C000146BB908958BB95B
:1003A00000C000C0001445FF6BB900C000C00014BD
:1003B0006BB90895AF92BF92CF92DF92EF92FF9206
:1003C0000F931F93CF93DF93CDB7DEB72C970FB664
:1003D000F894DEBF0FBECDBF8C010E949D136B0150
:1003E0007C01C8010E94420D8F97E1F5C8010E946F
:1003F0009D135B0181E0A816B10459F4F601EE0FDC
:10040000FF1FEC0DFD1DE953FE4F8FEF808311821E
:100410001EC082E0A816B10461F4F601EE0FFF1FC2
:10042000EC0DFD1DE953FE4F108211828FEF828388
:100430000FC083E0A816B10459F4F601EE0FFF1FB8
:10044000EC0DFD1DE953FE4F108280E8818312827E
:100450008091400190914101FC01EE5BFF4F608172
:100460000E9409064AE0B601CE0107960E941518BF
:100470006AE171E0CE0101960E94C617BE01695F74
:100480007F4FCE0101960E94091960E271E00E943F
:100490001C19B5010E943619BC01C8010E94341212
:1004A000CE0101960E945817CE0107960E94581758
:1004B0002C960FB6F894DEBF0FBECDBFDF91CF9163
:1004C0001F910F91FF90EF90DF90CF90BF90AF9072
:1004D00008950F931F93CF93DF93CDB7DEB7C95520
:1004E000D1090FB6F894DEBF0FBECDBF8C014FE22D
:1004F000BC01CE018C5A9F4F0E94A01369E271E0AB
:10050000CE018C5A9F4F0E9444198823B9F1F801FB
:10051000828193819C838B8344815581668177811D
:100520004D835E836F8378874085518562857385AF
:1005300049875A876B877C8786E591E09A83898310
:10054000848595859E878D8786859785988B8F87EF
:100550008089898B81898A8B82898B8B80E47396D1
:10056000DE01549601900D928A95E1F7CE01019635
:100570000E94DA01CE0101960E94020DCE018C5A32
:100580009F4F0E945817C75ADF4F0FB6F894DEBF2F
:100590000FBECDBFDF91CF911F910F910895CF93E3
:1005A000DF93CDB7DEB7C65AD1090FB6F894DEBFD8
:1005B0000FBECDBF6DEB71E0CE018C5A9F4F0E94F4
:1005C0005A0EA5968FADA597882309F44DC068965D
:1005D0008EAD9FAD68979C838B836C968CAD9DADE3
:1005E000AEADBFAD6C978D839E83AF83B887A09669
:1005F0008CAD9DADAEADBFADA09789879A87AB8717
:10060000BC8786E591E09A838983A2968EAD9FADE3
:10061000A2979E878D87A4968EAD9FADA497988B49
:100620008F8781E0898BA6968FADA6978A8BA79638
:100630008FADA7978B8B80E4E4E5F0E0EC0FFD1F16
:100640007396DE01549601900D928A95E1F7CE01E2
:1006500001960E946902CE0101960E94020DCE0110
:100660008C5A9F4F0E94BD0B62E370E080E090E0E7
:100670000E94F419CE018C5A9F4F0E94020DCA5558
:10068000DF4F0FB6F894DEBF0FBECDBFDF91CF9125
:1006900008950F931F93CF93DF93EC010E94D1191C
:1006A000088119812A813B81601B710B820B930B9E
:1006B00062337105810591058CF3DF91CF911F9114
:1006C0000F9108958F929F92AF92BF92CF92DF9237
:1006D000EF92FF920F931F93CF93DF93862EEA0141
:1006E0008C01000F111F080F191F040F151FCBB02D
:1006F0002C2D2068C22EDBB03D2D3F77D32E3BB989
:10070000B8802B2D382D239F212DB22E7A01E01693
:10071000F10608F069C035E0A32E4B2D6D2D8C2D10
:100720000E94AB01BB0CAA94C1F700144B2D6D2D98
:100730008C2D0E948F0100144B2D6D2D8C2D0E944D
:10074000C40199800014292D382D239F212D922E2C
:100750004B2D6D2D8C2D0E949D0155E0B52E492D00
:100760006D2D8C2D0E94AB01990CBA94C1F7001429
:10077000492D6D2D8C2D0E948F010014492D6D2D5A
:100780008C2D0E94C401AA8000142A2D382D239F8D
:10079000212DA22E492D6D2D8C2D0E949D0145E00D
:1007A000B42E4A2D6D2D8C2D0E94AB01AA0CBA944B
:1007B000C1F700144A2D6D2D8C2D0E94B70183E0E6
:1007C000E80EF11C4A2D6D2D8C2D0E94C401B880BD
:1007D00000142B2D382D239F212DB22E4A2D6D2D47
:1007E0008C2D0E94CF0193CF1124DF91CF911F91C7
:1007F0000F91FF90EF90DF90CF90BF90AF909F90C0
:100800008F900895AF92BF92CF92DF92EF92FF92B6
:100810000F931F93CF93DF931F92CDB7DEB75C0189
:100820007B018A01059629830E944903F894A70158
:100830002981622FC8010E946203C0904803D090B2
:100840004903E0904A03F0904B0328EC31E0D801D3
:100850000E94F71B20E130E040E050E00E94D81BEE
:10086000CA01B90128EE33E040E050E00E94D81BF5
:100870002C0D3D1D4E1D5F1D2093480330934903F1
:1008800040934A0350934B0378940E94D119F50189
:1008900065837683878390870F90DF91CF911F9137
:1008A0000F91FF90EF90DF90CF90BF90AF900895A1
:1008B000AF92BF92CF92DF92EF92FF920F931F936E
:1008C000CF93DF93A62EEA018C01000F111F080FB2
:1008D000191F040F151FEBB02E2D2068E22EFBB060
:1008E0003F2D3F77F32E3BB9D8802D2D362F239FF8
:1008F000212DD22EC017D10708F064C075E0C72E95
:100900004D2D6F2D8E2D0E94AB01DD0CCA94C1F7C9
:1009100000144D2D6F2D8E2D0E948F0100144D2D32
:100920006F2D8E2D0E94C401B9802B2D3A2D239F4F
:10093000212DB22E4D2D6F2D8E2D0E949D01F5E0A3
:10094000DF2E4B2D6F2D8E2D0E94AB01BB0CDA9448
:10095000C1F700144B2D6F2D8E2D0E948F010014B6
:100960004B2D6F2D8E2D0E94C401CA802C2D3A2D47
:10097000239F212DC22E4B2D6F2D8E2D0E949D0168
:10098000E5E0DE2E4C2D6F2D8E2D0E94AB01CC0CA0
:10099000DA94C1F700144C2D6F2D8E2D0E94B701F3
:1009A00023964C2D6F2D8E2D0E94C401D8802D2DA5
:1009B0003A2D239F212DD22E4C2D6F2D8E2D0E944E
:1009C000CF0198CF1124DF91CF911F910F91FF900C
:1009D000EF90DF90CF90BF90AF900895AF92BF920D
:1009E000CF92DF92EF92FF920F931F93CF93DF93FB
:1009F0001F92CDB7DEB75C017B018A010596298382
:100A00000E944903F894A7012981622FC8010E941E
:100A10005804C0904803D0904903E0904A03F090F6
:100A20004B0328EC31E0D8010E94F71B20E130E0B5
:100A300040E050E00E94D81BCA01B90128EE33E023
:100A400040E050E00E94D81B2C0D3D1D4E1D5F1D47
:100A5000209348033093490340934A0350934B0338
:100A600078940E94D119F5016583768387839087F6
:100A70000F90DF91CF911F910F91FF90EF90DF903A
:100A8000CF90BF90AF9008950F9300E020E040E03A
:100A900060E080ED91E00E94B61149E152E063EB25
:100AA00075E18DEB91E00F910C944C0E0F931F9319
:100AB000CF93DF93C0914001D09141018091B50166
:100AC000811111C01092B1011092B2011092B301C4
:100AD0001092B40182E391E09093AD018093AC0158
:100AE00081E08093B50100E010E023E030E047ECC6
:100AF00051E06CEA71E0CE010E94BC0540E855E28D
:100B000060E070E08BE492E00E946F0F26E040E925
:100B100050ED63E070E080912202909123020E94E8
:100B2000751089E192E00E94550881E08093C4012C
:100B30008DEB91E00E94AD0D1092C1011092C201A7
:100B40001092C301FE01EE5BFF4F6081CE01DF9189
:100B5000CF911F910F910C940906FC01E05CFF4FAF
:100B600028E030E03183208332962FEF208340E469
:100B700050E060E00C944906CF92DF92EF92FF9232
:100B80000F931F93CF93DF936C01EB0110161106A7
:100B90001CF0890120E030E0F601E05CFF4FE080CE
:100BA000F180B601E0E0F0E0EE15FF055CF4685F6F
:100BB0007F4FCB010897DC018D919C91009729F024
:100BC0003196F2CF80E090E01BC0EF3FBFEFFB0714
:100BD000B9F083E0EE0FFF1F8A95E1F7EC0DFD1DE4
:100BE000D183C08353834283268337831583048351
:100BF000E881F9810190F081E02DCE010995CE01C7
:100C0000DF91CF911F910F91FF90EF90DF90CF90E8
:100C10000895DF92EF92FF920F931F93CF93DF938C
:100C2000D62EEC0100E010E07C0180E4E80EF11C1F
:100C3000F7018081918108171907FCF48881998157
:100C40000097D9F0DC012D913C914C815D81AE8102
:100C5000BF81FD01EE0FFF1FEA0FFB1F6A817B8141
:100C60006E0F7F1FD9011896ED91FC9119972D2DCC
:100C700009950F5F1F4F2896DBCFDF91CF911F9112
:100C80000F91FF90EF90DF90089586ED91E00C9426
:100C9000AD05DC0140FF03C001C06D936D93425070
:100CA000E0F75040D0F70895FC01238134812627D6
:100CB000022E2295207F2025032E322F22952F7081
:100CC0000226269532272327220F220F220F2025C6
:100CD000FC01348323830895CF93DF93EC018D814E
:100CE0009E81DC01ED91FC916C810190F081E02D01
:100CF00009958D819E81DC01ED91FC910190F0813F
:100D0000E02D6B81DF91CF9109948F929F92AF92EA
:100D1000BF92CF92DF92EF92FF92CF93DF93EC01DD
:100D20006B010E94C5194B015C01E12CF12C8D81F6
:100D30009E81DC01ED91FC910680F781E02D099503
:100D400097FF0DC00E94C519681979098A099B0986
:100D50006C157D058E059F0550F38FEF9FEFDF919A
:100D6000CF91FF90EF90DF90CF90BF90AF909F908A
:100D70008F900895CF93DF93EC018D819E81DC01EC
:100D8000ED91FC910480F581E02D09951816190666
:100D900054F48D819E81DC01ED91FC910680F781F8
:100DA000E02D0995EACFDF91CF9108952F923F92E0
:100DB0004F925F926F927F928F929F92AF92BF926B
:100DC000CF92DF92EF92FF920F931F93CF93DF9317
:100DD000CDB7DEB72D970FB6F894DEBF0FBECDBFEF
:100DE0003C011B013C832B832701BF82AE8278012B
:100DF000EC0CFD1CE40EF51EFD82AF2CB12CCA01DB
:100E0000860F971F99878887D901A00FB11FBB87CD
:100E1000AA87F601E40DF51DFD87EC87F3018085B7
:100E2000B81608F027C1EFEFFFEFD3011496FC933B
:100E3000EE93139715968D919C911697DC01ED9189
:100E4000FC910190F081E02D6FEF09956FEFC301E8
:100E50000E945406F30185819681DC01ED91FC919D
:100E60000190F081E02DD3016C910995F30160812F
:100E7000C3010E945406D30115968D919C9116973B
:100E8000DC01ED91FC910190F081E02D6D810995DF
:100E90006A2DC3010E945406F30185819681DC010D
:100EA000ED91FC910190F081E02D6E2D09956E2D54
:100EB000C3010E945406610188859985C816D90628
:100EC000A1F0F301858196818601DC01ED91FC9111
:100ED0000190F081E02DD6016D916D010995F80129
:100EE0006081C3010E945406E7CFCB80DC808A85F5
:100EF0009B85C816D906B1F0D30115968D919C91AA
:100F000016978601DC01ED91FC910190F081E02DB6
:100F1000D6016D916D010995F8016081C3010E94B0
:100F20005406E5CF62018C859D85C816D906B1F0BF
:100F3000D30115968D919C9116978601DC01ED9158
:100F4000FC910190F081E02DD6016D916D01099524
:100F5000F8016081C3010E945406E5CFC3010E94DD
:100F60006C0664E670E0C3010E9485068F3F910520
:100F700009F075C0EFEFFFEFD3011496FC93EE93E9
:100F800013976FEFC3010E94540665E070E0C30140
:100F90000E948506D3016C91262F30E082179307BB
:100FA00009F05DC0C3010E9454066AE070E0C3010D
:100FB0000E9485068C0197FD52C0682FC3010E94D4
:100FC00054066AE070E0C3010E9485066C0197FD3B
:100FD00046C0682FC3010E9454060A831982E98122
:100FE000FA81CE0EDF1E00E010E065E070E0C30184
:100FF0000C151D0599F00E94850697FD0CC008157B
:10100000190528F4EE81FF81E00FF11F8083682F1E
:10101000C3010E9454060F5F1F4FE7CF0E94850651
:101020006C0197FD1CC065E070E0C3010E9485065D
:1010300097FD15C0DC2CCC24C80ED91ED301139605
:101040008D919C9114978C159D0549F48C918F5F1F
:101050008C93C8018016910678F4C4010DC0B39436
:1010600064E670E080E090E00E94F419C3010E9401
:10107000BA06D4CE8FEF9FEF2D960FB6F894DEBF51
:101080000FBECDBFDF91CF911F910F91FF90EF90D9
:10109000DF90CF90BF90AF909F908F907F906F9098
:1010A0005F904F903F902F9008953F924F925F92A4
:1010B0006F927F928F929F92AF92BF92CF92DF9268
:1010C000EF92FF920F931F93CF93DF93CDB7DEB7CD
:1010D0002E970FB6F894DEBF0FBECDBF3C01DC01EA
:1010E00017968C9117978111CFC081E017968C933A
:1010F000C3010E94BA0668EE73E080E090E00E94AF
:10110000F419F30185819681DC01ED91FC91048055
:10111000F581E02D09951816190654F345E0542E73
:101120004424439452E3352EE0E1F1E0DE011696CB
:10113000852D01900D928A95E1F7F3014086812C6F
:10114000912CA12CB12CC12CD12CE12CF12C00E044
:1011500010E020E030E045E050E0BE016A5F7F4FE4
:10116000C3010E94D60663E0D30115968D919C9130
:1011700016970E9442126AEF70E080E090E00E94B1
:10118000F4196AEB70E0F301858196810E940F12D9
:101190006AEF70E080E090E00E94F41968EB70E084
:1011A000D30115968D919C9116970E940F1264EFB2
:1011B00071E080E090E00E94F4196CEA70E0F301C5
:1011C000858196810E940F1264EF71E080E090E0CB
:1011D0000E94F419C3010E94BA06E5E1F1E0DE01C4
:1011E0001196852D01900D928A95E1F7D3011896FD
:1011F0003C9234E0832E912CFE013B965F0120E06F
:1012000030E045E050E0BE016F5F7F4FC3010E94B8
:10121000D6068F3FFFEF9F0739F468EE73E080E05A
:1012200090E00E94F41980CF2B852111FFCF049705
:1012300011F52C8530E02053310944E6429FC0016E
:10124000439F900D11242D8530E0205331096AE031
:10125000629FA001639F500D1124840F951F2E855E
:1012600030E020533109820F931FD30112969C93D3
:101270008E93119705C084E690E0F30192838183F9
:1012800082E3D30118968C932E960FB6F894DEBFA6
:101290000FBECDBFDF91CF911F910F91FF90EF90C7
:1012A000DF90CF90BF90AF909F908F907F906F9086
:1012B0005F904F903F900895109219028BE992E051
:1012C00090931F0280931E0210922002109221021E
:1012D000909323028093220208958F929F92AF925F
:1012E000BF92CF92DF92EF92FF920F931F9348012C
:1012F0005901C12CD12CE12CF12C00E010E020E0B0
:1013000030E00E94D6061F910F91FF90EF90DF9082
:10131000CF90BF90AF909F908F9008950F931F93A1
:1013200000E010E020E030E00E946D091F910F9175
:101330000895CF93DF9300D0CDB7DEB7DC0152968E
:101340008C915297882389F080E589836A8342E0F3
:1013500050E0BE016F5F7F4F1C968D919C911D9751
:101360000E948E0981E090E01FC05596ED91FC919E
:10137000569753968C91539791E0980F53969C9360
:101380005397E80FF11D608353969C9153975496A1
:101390008C915497981308C0ED91FC911197028499
:1013A000F385E02DCD0109950F900F90DF91CF913E
:1013B0000895AF92BF92CF92DF92EF92FF920F9378
:1013C0001F93CF93DF9300D0CDB7DEB75C017A01D6
:1013D000DC0152968C91811104C08B01E60EF71E40
:1013E00041C06A01BFEFCB1ADB0AC60169837A8369
:1013F0000E9477198C01FC0180E58193A701698126
:101400007A81CF010E941F1EA601B801F5018485D3
:1014100095850E948E090115110519F0C8010E94D9
:101420007919C70122C0D5015596ED91FC915697C7
:1014300053968C91539791E0980F53969C93D801B3
:101440009D918D01E80FF11D9083F50193898489A9
:10145000981308C00190F081E02D0284F385E02DFF
:10146000C50109950E151F05F1F60F900F90DF913C
:10147000CF911F910F91FF90EF90DF90CF90BF9091
:10148000AF900895CF93DF93EC018A8981110AC050
:101490004B8950E06D897E898C859D850E948E09DF
:1014A00081E08B8BDF91CF910895FC011382128232
:1014B00048EE53E060E070E04483558366837783B1
:1014C00086E491E09183808389E192E09587848727
:1014D00016861786118A108A81E0828B0895CF9331
:1014E000DF93EC018A89811108C08D899E8900975C
:1014F00011F00E94791981E08A8BDF91CF910895D4
:10150000EF92FF920F931F93CF93DF9300D0CDB74D
:10151000DEB77C01FC018685811114C0178680E747
:10152000898380E28A832089318900E210E042E0E9
:1015300050E0BE016F5F7F4F848595850E946D09E5
:10154000F70186870F900F90DF91CF911F910F9138
:10155000FF90EF900895CF93DF93EC010E94800AF3
:101560008E8590E0DF91CF910895CF93DF93EC01CA
:101570000E94800A8E85882369F081508E87E889D1
:10158000F9898F8591E0980F9F87E80FF11D808181
:1015900090E002C08FEF9FEFDF91CF910895CF933E
:1015A000DF93EC010E94800A8E85882341F08F85AD
:1015B000E889F989E80FF11D808190E002C08FEF82
:1015C0009FEFDF91CF910895CF93DF93EC010E94BD
:1015D0006F0A88899989009721F00E947919198AE0
:1015E000188ADF91CF91089526E431E0FC01318320
:1015F00020830C94E40A84E292E00C94550A84E27D
:1016000092E00C94F40A89E192E090933C0280937A
:101610003B02089589E192E090933E0280933D025F
:101620000895FC01808908950895EF92FF920F9329
:101630001F93CF93DF93CDB7DEB728970FB6F894FB
:10164000DEBF0FBECDBF7C018B016FE171E0CE012B
:1016500001964F8358870E94C61762E170E0CE0161
:1016600001960E948917D80112966C91CE010196BD
:101670000E94AA186EE2CE0101960E949718F80106
:101680006381CE0101960E94AA186EE2CE010196F6
:101690000E949718D80114966C91CE0101960E9471
:1016A000AA186EE2CE0101960E949718F801658192
:1016B000CE0101960E94AA18D701ED91FC91698193
:1016C0007A810684F785E02D4F815885C7010995F9
:1016D0008C01CE0101960E945817C80128960FB6BA
:1016E000F894DEBF0FBECDBFDF91CF911F910F9158
:1016F000FF90EF9008956F927F928F929F92AF929A
:10170000BF92CF92DF92EF92FF920F931F93CF93EE
:10171000DF9300D0CDB7DEB7FC019B013A01808991
:101720008823C1F08CE6898386858A83812C912C5D
:10173000A12CB12CC12CD12CE12CF12C8A0142E03E
:1017400050E0BE016F5F7F4F848595850E94D6066D
:10175000C30102C080E090E00F900F90DF91CF9125
:101760001F910F91FF90EF90DF90CF90BF90AF90BF
:101770009F908F907F906F900895EF92FF920F93BC
:101780001F93CF93DF9300D0CDB7DEB77C01FC0170
:101790008089882389F08AE6898386858A8300E0A8
:1017A00010E020E030E042E050E0BE016F5F7F4F8C
:1017B000848595850E946D09F701108A0F900F901E
:1017C000DF91CF911F910F91FF90EF9008950F93AC
:1017D0001F93CF93DF9300D01F92CDB7DEB7FC01EC
:1017E00080898823B1F08CE4898386858A8301E02F
:1017F00010E09E012D5F3F4F42E050E0BE016F5F61
:101800007F4F848595850E946D0981E09B81913091
:1018100009F080E00F900F900F90DF91CF911F9112
:101820000F9108956F927F928F929F92AF92BF9285
:10183000CF92DF92EF92FF920F931F93CF93DF939C
:10184000CDB7DEB727970FB6F894DEBF0FBECDBF7A
:101850003C019B0183E489835A834B83DB010D9018
:101860000020E9F78D0101501109061B170B882490
:101870008394912CFE0137965F01C12CD12CE12C71
:10188000F12C43E050E0BE016F5F7F4FD3011C9607
:101890008D919C911D970E94D606892BE1F12F8195
:1018A000822F90E0F3019787868783E68C832D83D0
:1018B00001E010E09E012A5F3F4F42E050E0BE0190
:1018C0006C5F7F4FD3011C968D919C911D970E9458
:1018D0006D098E81882339F061E070E080E090E04E
:1018E0000E94F419E5CF81E0F301808B0190F08133
:1018F000E02D0488F589E02DC301099581110EC002
:10190000D301ED91FC910288F389E02DC301099583
:10191000F3011786168680E090E002C081E090E037
:1019200027960FB6F894DEBF0FBECDBFDF91CF91E3
:101930001F910F91FF90EF90DF90CF90BF90AF90ED
:101940009F908F907F906F9008950F931F93CF93E8
:10195000DF9300D01F92CDB7DEB7FC0180898823CA
:10196000A9F08CE6898386858A836B8300E010E08A
:1019700020E030E043E050E0BE016F5F7F4F8485A0
:1019800095850E946D0981E090E002C080E090E0C2
:101990000F900F900F90DF91CF911F910F910895AD
:1019A0000F931F93FC011382128208EE13E020E0D4
:1019B00030E0048315832683378386E591E09183A5
:1019C0008083558744877787668781E0808B118A7B
:1019D0001F910F910895FC01CB011382128248EEF2
:1019E00053E060E070E0448355836683778326E5A7
:1019F00031E0318320839587848717861686108A85
:101A0000118A089526E531E0FC0131832083089591
:101A1000EF92FF920F931F93CF93DF9300D01F920B
:101A2000CDB7DEB77C01FC018189811117C0128A14
:101A30008BE4898386858A8380E48B8397012D5E7E
:101A40003F4F00E410E043E050E0BE016F5F7F4F86
:101A5000848595850E946D09F701818B0F900F9009
:101A60000F90DF91CF911F910F91FF90EF9008950C
:101A7000CF93DF93EC010E94080D898990E0DF91FC
:101A8000CF910895CF93DF93EC010E94080D8989CF
:101A9000882359F08150898B8A8991E0980F9A8B1D
:101AA000C80FD11D8B8990E002C08FEF9FEFDF91AF
:101AB000CF910895CF92DF92EF92FF920F931F93F1
:101AC000CF93DF93EC016A018B01E12CF12C898922
:101AD0008823A9F08FEFE81AF80A8A8991E0980F15
:101AE0009A8BFE01E80FF11D8389F80181938F0124
:101AF00089898150898BEC14FD0448F306C0CE011E
:101B00000E94080D89898111E5CFC701DF91CF912E
:101B10001F910F91FF90EF90DF90CF900895CF939A
:101B2000DF93EC010E94080D8989882331F08A89AE
:101B3000C80FD11D8B8990E002C08FEF9FEFDF911E
:101B4000CF9108950F9300E020E040E060E08FE344
:101B500092E00E94B6110F9108956F927F928F923A
:101B60009F92AF92BF92CF92DF92EF92FF920F932C
:101B70001F93CF93DF93CDB7DEB72A970FB6F894B4
:101B8000DEBF0FBECDBF3C018EE48F83F3018481A5
:101B900095819887898764EC70E0CE0101960E9458
:101BA0006218F3018781811106C06CEB70E0CE01F1
:101BB00001960E9441180D811E8129813A81882455
:101BC0008394912CCE010A965C01C12CD12CE12C7E
:101BD000F12C43E050E0BE01695F7F4FF301808547
:101BE00091850E94D60681E09A85913009F080E0C7
:101BF000F3018683CE0101960E9458172A960FB6EC
:101C0000F894DEBF0FBECDBFDF91CF911F910F9132
:101C1000FF90EF90DF90CF90BF90AF909F908F900C
:101C20007F906F9008958F929F92AF92BF92CF92C4
:101C3000DF92EF92FF920F931F93CF93DF9300D029
:101C4000CDB7DEB722E629836A83812C912CA12CA3
:101C5000B12CC12CD12CE12CF12C00E010E020E0C3
:101C600030E042E050E0BE016F5F7F4FFC018085B5
:101C700091850E94D60681E090E00F900F90DF9151
:101C8000CF911F910F91FF90EF90DF90CF90BF9079
:101C9000AF909F908F900895FC011382128282E78B
:101CA00091E09183808375836483168217825187C4
:101CB000408708956F927F928F929F92AF92BF92CA
:101CC000CF92DF92EF92FF920F931F93CF93DF9308
:101CD00000D0CDB7DEB73C01FB018BE68A838824B8
:101CE0008394912CCE0101965C01C12CD12CE12C66
:101CF000F12C00E010E020E030E041E050E0BE01D7
:101D00006E5F7F4F808591850E94D606892B31F4C6
:101D100069E172E0C3010E94EB0C07C0698170E0C9
:101D200049E152E0C3010E94D00CC3010F900F9013
:101D3000DF91CF911F910F91FF90EF90DF90CF90A7
:101D4000BF90AF909F908F907F906F9008950F936A
:101D500000E020E040E060E085E492E00E94B611FF
:101D60000F910895CF93DF931F92CDB7DEB76983AC
:101D7000DC01ED91FC910280F381E02D41E050E027
:101D8000BE016F5F7F4F09950F90DF91CF9108954E
:101D9000CF93DF93EC018C859D8597FF05C082E092
:101DA0000E9487149D878C878C859D85DF91CF91BC
:101DB000089583E00C94DA16FC018485958597FDDF
:101DC00006C082E00E942F1490E00196089582E000
:101DD0000E942F1490E00895FC018485958597FD5D
:101DE00005C02FEF3FEF35872487089582E00C94DC
:101DF0008714CF93DF93EC0180910D01882331F09C
:101E000083E00E94B8141816190634F081E090E0BF
:101E10009B838A8380E090E0DF91CF910895FC015D
:101E200020812E5F208342E450E06EEC70E080E879
:101E30000C945315FC0181819081913A59F48132BF
:101E400009F03CC047E050E066E071E080E00E94AD
:101E5000531543C0913291F5803239F467E070E058
:101E600086E091E00E94841506C0823209F035C0F8
:101E7000828180930D018091060190910701A091CC
:101E80000801B0910901803B9440A105B105C1F45E
:101E900080910D0180FD14C087E797E790930108BA
:101EA000809300082BE088E190E00FB6F894A895A5
:101EB000809360000FBE209360000FC080E0089503
:101EC00088E10FB6F89480936000109260000FBE16
:101ED000A895109201081092000881E008952FEF54
:101EE0003FEFFC0135872487089510924E0210922F
:101EF0004D0288EE93E0A0E0B0E080934F02909313
:101F00005002A0935102B09352028CE791E090935B
:101F10004C0280934B028FEF9FEF90935802809377
:101F200057020895FC01818D228D90E0805C9F4FC7
:101F3000821B91098F7399270895FC01918D828DE1
:101F4000981731F0828DE80FF11D858D90E008958E
:101F50008FEF9FEF0895FC01918D828D981761F0AE
:101F6000828DDF01A80FB11D5D968C91928D9F5FD0
:101F70009F73928F90E008958FEF9FEF08958FE207
:101F800091E1892B49F080E090E0892B29F00E94B3
:101F90002F1181110C9400000895FC01848DDF0144
:101FA000A80FB11DA35ABF4F2C91848D90E00196CC
:101FB0008F739927848FA689B7892C93A089B189BB
:101FC0008C9180648C93938D848D981306C00288C5
:101FD000F389E02D80818F7D80830895CF93DF93F7
:101FE000EC01888D8823C9F0EA89FB89808185FD11
:101FF00005C0A889B9898C9186FD0FC00FB607FC72
:10200000F5CF808185FFF2CFA889B9898C9185FFB2
:10201000EDCFCE010E94CD0FE7CFDF91CF91089594
:10202000CF92DF92FF920F931F93CF93DF931F9274
:10203000CDB7DEB76C01DC015B969C915B975C963B
:102040008C915C97981307C05096ED91FC91519735
:10205000808185FD32C0F601038D10E00F5F1F4FB8
:102060000F731127F02EF601848DF81211C00FB6F0
:1020700007FCF9CFD6015096ED91FC9151978081E4
:1020800085FFF1CFC60169830E94CD0F6981EBCF37
:10209000838DE80FF11DE35AFF4F6083D6015B96F5
:1020A0000C935B975296ED91FC91539780818062DF
:1020B000808381E058968C930DC0D6015696ED91A1
:1020C000FC91579760835096ED91FC9151978081D8
:1020D0008064808381E090E00F90DF91CF911F9129
:1020E0000F91FF90DF90CF900895BF92CF92DF9233
:1020F000EF92FF92CF93DF93EC016A017B01B22E46
:10210000E889F98982E08083411581EE58076105ED
:102110007105A1F060E079E08DE390E0A701960100
:102120000E94B61B21503109410951095695479526
:1021300037952795211580E1380798F0E889F989C6
:10214000108260E874E88EE190E0A70196010E9499
:10215000B61B2150310941095109569547953795CC
:102160002795EC85FD853083EE85FF852083188ECD
:10217000EC89FD89B082EA89FB8980818061808356
:10218000EA89FB89808188608083EA89FB89808174
:1021900080688083EA89FB8980818F7D8083DF91DD
:1021A000CF91FF90EF90DF90CF90BF9008951F9256
:1021B0000F920FB60F9211242F938F939F93EF934B
:1021C000FF93E091AB02F091AC028081E091B1020B
:1021D000F091B20282FD12C090818091B4028F5FB3
:1021E0008F732091B502821751F0E091B402F0E0B4
:1021F000E556FD4F958F8093B40201C08081FF9119
:10220000EF919F918F912F910F900FBE0F901F9084
:1022100018951F920F920FB60F9211242F933F9390
:102220004F935F936F937F938F939F93AF93BF93DE
:10223000EF93FF938BE992E00E94CD0FFF91EF9116
:10224000BF91AF919F918F917F916F915F914F91CE
:102250003F912F910F900FBE0F901F9018958BE913
:1022600092E00E94920F21E0892B09F420E0822F56
:10227000089510929E0210929D0288EE93E0A0E0D5
:10228000B0E080939F029093A002A093A102B0932C
:10229000A2028CE891E090939C0280939B028DECCB
:1022A00090E09093A8028093A7028CEC90E090932A
:1022B000AA028093A90288EC90E09093AC028093EC
:1022C000AB0289EC90E09093AE028093AD028AEC71
:1022D00090E09093B0028093AF028EEC90E09093E8
:1022E000B2028093B1021092B4021092B502109221
:1022F000B6021092B7020895AF92BF92CF92DF92CA
:10230000EF92FF920F931F93CF93DF936C017B01AA
:10231000C0E0D0E000E010E0F601EC0FFD1F4AE065
:1023200050E06281C7010E94AF125C016EE2C701FA
:102330000E9442128A0D9B1D080F191F2196C3305F
:10234000D10551F74AE050E0F6016581C7010E94CE
:10235000AF12800F911FDF91CF911F910F91FF90CE
:10236000EF90DF90CF90BF90AF9008950F93FC0156
:102370008CE991E091838083628343832483058386
:102380000F9108958CE991E090933903809338037D
:1023900010923A0310923B0310923C0310923D03BB
:1023A0000895CF92DF92EF92FF920F931F93CF93F6
:1023B000DF936C017A01EB01E60EF71E00E010E0FE
:1023C000CE15DF0561F06991D601ED91FC91019088
:1023D000F081E02DC6010995080F191FF1CFC80142
:1023E000DF91CF911F910F91FF90EF90DF90CF90F1
:1023F00008956115710581F0DB010D900020E9F76A
:10240000AD0141505109461B570BDC01ED91FC9188
:102410000280F381E02D099480E090E00895EF922E
:10242000FF920F931F93CF93DF938C01FB01C0E0CA
:10243000D0E064917F018FEFE81AF80A662361F01B
:10244000D801ED91FC910190F081E02DC801099532
:10245000C80FD91FF701EDCFCE01DF91CF911F91AA
:102460000F91FF90EF900895DC01ED91FC91DB015D
:1024700014964D915C9115976D917C910280F3813A
:10248000E02D0994DC01ED91FC910190F081E02DAB
:1024900009948F929F92AF92BF92CF92DF92EF9268
:1024A000FF920F931F93CF93DF93CDB7DEB7A19722
:1024B0000FB6F894DEBF0FBECDBF7C01C42EE52F52
:1024C000CB01D22E19A221E02D1510F02AE0D22E38
:1024D0008E010F5D1F4F8D2C912CA12CB12C6C2DDA
:1024E0007E2FA50194010E94B61B8C2DD29E8019CF
:1024F0001124015011098A3014F4805D01C0895CF7
:10250000F8018083211531054105510521F0C22EC6
:10251000E32FCA01E4CFB801C7010E94F911A196C7
:102520000FB6F894DEBF0FBECDBFDF91CF911F91E4
:102530000F91FF90EF90DF90CF90BF90AF909F9062
:102540008F9008952115310541F4DC01ED91FC9146
:102550000190F081E02D642F09940C9449129A01A6
:10256000462F50E060E070E00C94A2120F931F938E
:10257000CF93DF93EC010E94C519688779878A871A
:102580009B87E881F9810680F781E02DCE010995CE
:1025900097FF15C00E94C519088519852A853B85B6
:1025A000601B710B820B930B0C811D812E813F816F
:1025B000601771078207930720F38FEF9FEFDF917A
:1025C000CF911F910F9108950F931F93CF93DF9396
:1025D000EC010E94C519688779878A879B87E88103
:1025E000F9810084F185E02DCE01099597FF15C092
:1025F0000E94C519088519852A853B85601B710BCA
:10260000820B930B0C811D812E813F816017710716
:102610008207930720F38FEF9FEFDF91CF911F91F8
:102620000F910895CF93DF93EC01CE010E94E41245
:1026300097FD11C08D32910571F09C012053310935
:102640002A30310540F0E881F9810680F781E02DDC
:10265000CE010995EACFDF91CF910895CF92DF9215
:10266000FF920F931F93CF93DF9300D000D0CDB78D
:10267000DEB76C01062F0E941213FC0197FD4BC0C0
:1026800020E030E0A901F12C112707FD1095E0179B
:10269000F107E9F0ED32F105C1F0CF01C0970A97DB
:1026A000B0F4AAE0B0E00E94FE1B9B01AC01CF0198
:1026B000AA2797FDA095BA2F280F391F4A1F5B1F25
:1026C000205331094109510902C0FF24F394D60176
:1026D000ED91FC910680F781E02DC60129833A83B4
:1026E0004B835C830995C6010E94E412FC01C097EC
:1026F00029813A814B815C810A9748F2E017F10702
:1027000031F2FF2061F066277727CB01621B730B44
:10271000840B950B06C060E070E0CB0102C0CA01DB
:10272000B9010F900F900F900F90DF91CF911F91F3
:102730000F91FF90DF90CF90089561E00C942E13DD
:10274000EF92FF920F931F93CF93DF93EC018B01D6
:10275000E42E6FE171E00E94C617C8010E94B61214
:10276000FF24E7FCF09497FD0BC08E159F0541F008
:10277000682FCE010E949718C8010E94B612F3CFAD
:10278000CE01DF91CF911F910F91FF90EF900895AF
:102790004091420350914303209140033091410303
:1027A00042175307B4F49091E8009570E1F39091CB
:1027B000E80092FD19C08093F1008091420390914E
:1027C000430301968F739927892B19F48EEF809319
:1027D000E800809142039091430301969093430354
:1027E0008093420381E0089580E00895FF920F9363
:1027F0001F93CF93DF938C0188E10E94C81383E07D
:102800000E94C813C0E0D0E0F801EC0FFD1F8491D6
:102810000E94C813F82E80E00E94C8138F2121F077
:102820002196CB30D10581F7DF91CF911F910F9188
:10283000FF900895615030F02091F100FC01208359
:102840000196F8CF289884E68093450308952FB722
:10285000FC012083F89467706093E9000895CF939A
:10286000DF931F92CDB7DEB7682FCE0101960E948D
:1028700027148091F20099819FBF0F90DF91CF9133
:102880000895FF920F931F93CF93DF9300D0CDB79E
:10289000DEB7F62E8A0190914403992311F057FF79
:1028A00003C08FEF9FEF2BC0682FCE0101967A8374
:1028B0000E9427148091F20090E0A8017A8180178D
:1028C00091070CF4AC01EF2DF72FF40E84E6FE1601
:1028D00039F02898809345039091F1009193F7CFB8
:1028E0004115510521F08091F200882321F0898162
:1028F0008FBFCA0104C08BE68093E800F8CF0F9029
:102900000F90DF91CF911F910F91FF900895CF937A
:10291000DF931F92CDB7DEB741E050E0BE016F5F9D
:102920007F4F0E944114019719F4898190E002C001
:102930008FEF9FEF0F90DF91CF910895CF93DF93AB
:102940001F92CDB7DEB7682FCE0101960E942714E3
:102950009091E800892F807295FF04C09091F20059
:1029600080E4891B99819FBF0F90DF91CF910895DB
:102970006F927F928F929F92AF92BF92CF92DF928F
:10298000EF92FF920F931F93CF93DF931F92CDB7D8
:10299000DEB7782E7B01C42EB52E809144038823A8
:1029A00069F0042F152F8AEFD82E872D8072982E6C
:1029B0009AE3A92E872D8074882E11C08FEF9FEF88
:1029C00057C0872D0E949E14682E81110CC0DA9486
:1029D000A9F361E070E080E090E00E94F419011535
:1029E000110579F73BC0282F30E0021713070CF4CC
:1029F000602E672DCE0101960E9427148091E80079
:102A000085FF29C0262D30E0021B130B992039F0D9
:102A10006A948FEF6816B1F01092F100F9CFF701C8
:102A2000862D77FE07C0815058F094919093F10065
:102A30003196F9CF815020F091919093F100FACF27
:102A4000E20EF31E8091E80085FF0FC0011511050D
:102A500011F481100AC089818FBFC1CF5D9884E6CF
:102A6000809346038C2D9B2D03C0A092E800F3CFEA
:102A70000F90DF91CF911F910F91FF90EF90DF901A
:102A8000CF90BF90AF909F908F907F906F90089560
:102A90001092E90010924303109242039093410375
:102AA000809340030895CF92DF92FF920F931F937C
:102AB000CF93DF9300D0CDB7DEB7F82E8A016B013C
:102AC00001151105B1F0F601F7FE02C0849101C0B5
:102AD000808149835A830E94C81301501109FFEF76
:102AE000CF1ADF0A49815A818111EACF8FEF9FEF18
:102AF00001C0CA010F900F90DF91CF911F910F91EC
:102B0000FF90DF90CF9008951F93CF93DF931F9294
:102B1000CDB7DEB7162F2091E80022FFFCCF612F42
:102B200079830E941A148BEF8093E800812F7981BA
:102B3000972F0F90DF91CF911F910895CF93DF933F
:102B40001F92CDB7DEB71982CE0101960E940F0FFA
:102B5000CE0101960E94901A898190E00F90DF913A
:102B6000CF9108951F920F920FB60F921124EF92FA
:102B7000FF920F931F932F933F934F935F936F9306
:102B80007F938F939F93AF93BF93EF93FF93CF93D5
:102B9000DF93CDB7DEB76297DEBFCDBF1092E900FD
:102BA0008091E80083FFE9C068E0CE010A960E94A8
:102BB0001A1482EF8093E8009A8597FF05C08091F0
:102BC000E80080FFFCCF03C08EEF8093E800892FE0
:102BD000807609F0B7C08B85811105C01092F10095
:102BE0001092F100C3C0282F2D7F213009F4BEC000
:102BF000853049F48091E80080FFFCCF8C858068A7
:102C00008093E300B3C0863009F074C02D85E88856
:102C1000F988223071F580E090E02A8B0E944815F7
:102C20000E949E1599E08E010F5F1F4FF801392F0A
:102C300011923A95E9F799832A892A8391E09E8334
:102C400090E898879AEF9987209142033091430347
:102C5000275F3F4F3C832B838D83C7010E9448151C
:102C600049E050E0B80180E00E9453150E949E1593
:102C70007DC0C7012A8B0E9448152A89223241F45F
:102C800082E290E00E949B1A892B09F06FC072C00B
:102C9000213069F488899989089711F420933F03BA
:102CA00080913F03811116C067E271E018C02330A4
:102CB00009F060C08C85882381F0823019F485E4A6
:102CC00091E005C0813009F055C089E391E00E9490
:102CD000F6134AC065E171E002C061E571E061157B
:102CE000710509F447C0FB01449150E080E80E945F
:102CF00053153CC0873009F43DC0883021F481E091
:102D00008093F10033C0893089F5937099F5E1E142
:102D1000F1E081E021E096E38093E9002093EB006D
:102D200034913093EC009093ED008F5F31968530B5
:102D300099F78EE78093EA001092EA008C858093E1
:102D4000440314C0888999890E9448158E85811191
:102D500005C0CE010A960E941A0F06C0823051F4B7
:102D6000CE010A960E94C31A882321F08EEF809329
:102D7000E80003C081E28093EB0062960FB6F894FE
:102D8000DEBF0FBECDBFDF91CF91FF91EF91BF911D
:102D9000AF919F918F917F916F915F914F913F91F3
:102DA0002F911F910F91FF90EF900F900FBE0F90FA
:102DB0001F9018958093E9008091F200882319F004
:102DC0008AE38093E80008951F920F920FB60F9246
:102DD00011242F933F934F935F936F937F938F9320
:102DE0009F93AF93BF93EF93FF938091E100109275
:102DF000E10083FF0FC01092E90091E09093EB0097
:102E00001092EC0092E39093ED001092440398E04E
:102E10009093F00082FF1DC083E00E94DA1680913B
:102E20004603882339F080914603815080934603FE
:102E3000882369F080914503882359F080914503E8
:102E4000815080934503811104C0289A02C05D9A85
:102E5000F1CFFF91EF91BF91AF919F918F917F91B2
:102E60006F915F914F913F912F910F900FBE0F90F7
:102E70001F9018951092440381E08093D70080EA58
:102E80008093D80082E189BD09B400FEFDCF61E0E6
:102E900070E080E090E00E94F41980E98093D8000F
:102EA0008CE08093E2001092E000559A209A0895F9
:102EB000FC01808191810C94B61CCF93DF93EC01CF
:102EC00088819981009711F00E94B61C198218829E
:102ED0001D821C821B821A82DF91CF9108950F936D
:102EE0001F93CF93DF93EC018B016F5F7F4F88813E
:102EF00099810E94451D009731F0998388831B8337
:102F00000A8381E001C080E0DF91CF911F910F9192
:102F10000895CF93DF93EC0188819981892B29F063
:102F20008A819B818617970760F4CE010E946F17F4
:102F3000882341F08C819D81892B19F4E881F981E6
:102F4000108281E0DF91CF910895EF92FF920F936D
:102F50001F93CF93DF93EC017B018A01BA010E949A
:102F60008917811104C0CE010E945D1707C01D831F
:102F70000C83B701888199810E94311ECE01DF91B7
:102F8000CF911F910F91FF90EF900895FC01118256
:102F9000108213821282158214826115710559F014
:102FA000FB0101900020E9F7AF0141505109461B98
:102FB000570B0C94A5170895EF92FF920F931F9350
:102FC000CF93DF93EC017B018A01BA010E9489173C
:102FD000811104C0CE010E945D1707C01D830C83C0
:102FE000B701888199810E940F1ECE01DF91CF9198
:102FF0001F910F91FF90EF900895CF93DF93EC0115
:103000006115710561F0FB0101900020E9F7AF0146
:1030100041505109461B570B0E94A51702C00E9440
:103020005D17CE01DF91CF9108950F931F93CF933A
:10303000DF93CDB7DEB762970FB6F894DEBF0FBE51
:10304000CDBF8C01CB01F801118210821382128254
:103050001582148250E0BE016F5F7F4F0E94381EC0
:10306000BE016F5F7F4FC8010E94FD1762960FB6C9
:10307000F894DEBF0FBECDBFDF91CF911F910F91AE
:1030800008950F931F93CF93DF9300D0CDB7DEB792
:103090008C016115710561F0CB0169837A830E940F
:1030A000161EAC0169817A81C8010E94DC1702C03A
:1030B0000E945D17C8010F900F90DF91CF911F9173
:1030C0000F910895FC0111821082138212821582E1
:1030D00014820C944118EF92FF920F931F93CF9399
:1030E000DF93EC017B010C811D816115710511F4E9
:1030F00080E016C04115510591F0040F151FB8016D
:103100000E9489178823A1F3288139818C819D81B0
:10311000B701820F931F0E94311E1D830C8381E033
:10312000DF91CF911F910F91FF90EF900895CF9372
:10313000DF9300D0CDB7DEB769831A8241E050E05B
:10314000BE016F5F7F4F0E946B180F900F90DF9151
:10315000CF910895EF92FF920F931F93CF93DF9338
:1031600000D000D0CDB7DEB77C01862F4AE050E01A
:103170008E010F5F1F4FB80190E00E94381EF801CA
:1031800001900020E9F7AF0141505109401B510B5C
:10319000B801C7010E946B180F900F900F900F900D
:1031A000DF91CF911F910F91FF90EF900895EF92D3
:1031B000FF920F931F93CF93DF93CDB7DEB728977E
:1031C0000FB6F894DEBF0FBECDBF7C01CB014AE045
:1031D00050E08E010F5F1F4FB8010E94381EF801AA
:1031E00001900020E9F7AF0141505109401B510BFC
:1031F000B801C7010E946B1828960FB6F894DEBF7D
:103200000FBECDBFDF91CF911F910F91FF90EF9037
:103210000895CF93DF93EC01FB01448155816081D8
:1032200071810E946B18811103C0CE010E945D174D
:10323000CE01DF91CF910895CF93DF93EC0161151B
:10324000710569F0FB0101900020E9F7AF014150E1
:103250005109461B570B0E946B18811103C0CE0108
:103260000E945D17CE01DF91CF910895CF93DF9338
:10327000EC010E94D718811103C0CE010E945D1796
:10328000CE01DF91CF910895FC0124813581232B5C
:1032900031F421E061157105A1F0FB0108C0FC01CA
:1032A000808191816115710531F421E0FC018081FB
:1032B000882339F005C00E94281E21E0892B09F0DF
:1032C00020E0822F089508950E941C1A0E9463191D
:1032D0008EE393E00E943A170E945605CFEBDFE0A1
:1032E0000E94CF022097E1F30E94BF0FF9CF0C9408
:1032F0001E1C0C94B61C1F920F920FB60F92112435
:103300002F933F938F939F93AF93BF9380914803E5
:1033100090914903A0914A03B0914B033091470328
:1033200023E0230F2D3720F40196A11DB11D05C008
:1033300026E8230F0296A11DB11D20934703809319
:10334000480390934903A0934A03B0934B038091A1
:103350004C0390914D03A0914E03B0914F03019601
:10336000A11DB11D80934C0390934D03A0934E0378
:10337000B0934F03BF91AF919F918F913F912F9148
:103380000F900FBE0F901F9018952FB7F894609173
:1033900048037091490380914A0390914B032FBFDA
:1033A00008953FB7F89480914C0390914D03A091FC
:1033B0004E03B0914F0326B5A89B05C02F3F19F0CF
:1033C0000196A11DB11D3FBF6627782F892F9A2F27
:1033D000620F711D811D911D42E0660F771F881FCE
:1033E000991F4A95D1F70895CF92DF92EF92FF92FD
:1033F000CF93DF936B017C010E94D119EB01C114C3
:10340000D104E104F10489F00E94B51B0E94D11996
:103410006C1B7D0B683E734090F381E0C81AD108A5
:10342000E108F108C851DC4FEACFDF91CF91FF905E
:10343000EF90DF90CF900895789484B5826084BD3A
:1034400084B5816084BD85B5826085BD85B58160A8
:1034500085BDEEE6F0E0808181608083E1E8F0E008
:103460001082808182608083808181608083E0E837
:10347000F0E0808181608083E1E9F0E0808182601A
:103480008083808181608083E0E9F0E080818160D9
:103490008083E1ECF0E080818460808380818260C1
:1034A0008083808181608083E3ECF0E080818160B3
:1034B0008083E0ECF0E0808182608083E2ECF0E0E9
:1034C000808181608083EAE7F0E08081846080838E
:1034D0008081826080838081816080838081806838
:1034E00080830895FF920F931F93CF93DF93EC0196
:1034F000F62EE881F9810480F581E02D09958C0193
:10350000E881F9810680F781E02D6F2DCE010995C4
:10351000C8019927DF91CF911F910F91FF900895D6
:10352000FC0120812F5F208349E150E065ED71E0CF
:1035300080E80C94531545E650E06EEE71E080E8AB
:103540000C945315EF92FF920F931F93CF93DF9339
:103550001F92CDB7DEB789838B017A0141E050E03D
:10356000BE016F5F7F4F84E00E94B814A701B801CD
:1035700084E40E94B8140F90DF91CF911F910F91B6
:10358000FF90EF900895FC0191818081813A31F4A0
:1035900081E0913091F0933089F411C0813271F45F
:1035A0009B3021F4828180930F0105C09A3031F461
:1035B000828180930E0181E00895089580E008954E
:1035C00048E050E082E00C94A21ACF93DF93DC0134
:1035D000683818F0E8E7E60F25C0E62FF0E067FF4F
:1035E00011C0E058F10981E090E001C0880FEA9530
:1035F000EAF714969C911497982B14969C93149721
:10360000E0E010C0EB5AFE4FE491EE2309F440C015
:10361000E7FF08C014968C911497826014968C93DF
:103620001497EF7716968C9116978E1741F117968F
:103630008C9117978E1719F118968C9118978E17F1
:10364000F1F019968C9119978E17C9F01A968C91F2
:103650001A978E17A1F01B968C911B978E1779F0F5
:1036600080E090E0ED01C80FD91F2E81211102C02A
:10367000EE8305C0019686309105A1F709C0BD0112
:103680006C5F7F4FCD010E94E01A81E090E008C09E
:1036900081E090E013969C938E93129780E090E0E7
:1036A000DF91CF910895683818F0E8E7E60F25C05C
:1036B000E62FF0E067FF12C0E058F10921E030E0AA
:1036C00001C0220FEA95EAF72095DC0114963C919F
:1036D0001497322314963C93E0E00FC0EB5AFE4F50
:1036E000E491EE2329F1E7FF08C0DC0114962C9148
:1036F00014972D7F14962C93EF7720E030E0EE2383
:1037000051F0DC01A20FB31F16964C9116974E1381
:1037100002C016961C922F5F3F4F2630310579F775
:10372000BC016C5F7F4F0E94E01A81E090E0089539
:1037300080E090E00895FC011682178210861186C1
:10374000128613861482BC016C5F7F4F0C94E01AC2
:1037500010925C03109253031092520382EA91E09C
:10376000909351038093500308950895A1E21A2E77
:10377000AA1BBB1BFD010DC0AA1FBB1FEE1FFF1F15
:10378000A217B307E407F50720F0A21BB30BE40B65
:10379000F50B661F771F881F991F1A9469F76095AC
:1037A0007095809590959B01AC01BD01CF01089566
:1037B000052E97FB1EF400940E94EF1B57FD07D0C7
:1037C0000E94B61B07FC03D04EF40C94EF1B5095DF
:1037D0004095309521953F4F4F4F5F4F08959095FD
:1037E0008095709561957F4F8F4F9F4F08950E94F0
:1037F0000F1CB7FF0895821B930B08950E940F1CA6
:10380000A59F900DB49F900DA49F800D911D112434
:103810000895EE0FFF1F0590F491E02D0994A29FEB
:10382000B001B39FC001A39F700D811D1124911D94
:10383000B29F700D811D1124911D0895CF93DF93C8
:103840008230910510F482E090E0E0915F03F09106
:10385000600320E030E0A0E0B0E0309739F1408133
:10386000518148175907B8F04817590771F48281F8
:103870009381109729F013969C938E9312972CC0E6
:103880009093600380935F0327C02115310531F0C9
:103890004217530718F0A901DB0101C0EF019A019B
:1038A000BD01DF010280F381E02DD7CF2115310565
:1038B000F9F0281B390B2430310580F48A819B8173
:1038C0006115710521F0FB019383828304C09093FD
:1038D000600380935F03FE01329644C0FE01E20F55
:1038E000F31F8193919322503109398328833AC081
:1038F00020915D0330915E03232B41F4209102015E
:103900003091030130935E0320935D032091000109
:10391000309101012115310541F42DB73EB7409199
:10392000040150910501241B350BE0915D03F091DA
:103930005E03E217F307A0F42E1B3F0B281739078D
:1039400078F0AC014E5F5F4F2417350748F04E0FFB
:103950005F1F50935E0340935D038193919302C078
:10396000E0E0F0E0CF01DF91CF910895CF93DF93B6
:10397000009709F487C0FC01329713821282C0912C
:103980005F03D0916003209781F420813181280F5B
:10399000391F80915D0390915E038217930779F53B
:1039A000F0935E03E0935D036DC0DE0120E030E044
:1039B000AE17BF0750F412964D915C9113979D017D
:1039C0004115510509F1DA01F3CFB383A283408198
:1039D0005181840F951F8A179B0771F48D919C91DB
:1039E0001197840F951F02969183808312968D9173
:1039F0009C911397938382832115310529F4F093C9
:103A00006003E0935F033EC0D9011396FC93EE93ED
:103A100012974D915D91A40FB51FEA17FB0779F43A
:103A200080819181840F951F0296D90111969C93F4
:103A30008E938281938113969C938E931297E0E0EC
:103A4000F0E08A819B81009719F0FE01EC01F9CF2B
:103A5000CE01029628813981820F931F20915D0348
:103A600030915E032817390769F4309729F41092D2
:103A7000600310925F0302C013821282D0935E0330
:103A8000C0935D03DF91CF910895A0E0B0E0EBE437
:103A9000FDE10C947C1EEC01CB01209719F40E94EF
:103AA0001E1CB8C0FE01E60FF71F9E01225031090F
:103AB000E217F30708F4ACC0D9010D911C911197DE
:103AC00006171707B8F00530110508F49FC0A801C4
:103AD000445051094617570708F498C0025011097D
:103AE000061B170B019311936D937C93CF010E94DA
:103AF000B61C8CC05B01A01AB10A4E01800E911E4B
:103B0000A0915F03B0916003612C712C60E070E0C4
:103B1000109709F449C0A815B905C9F5ED90FC90B6
:103B20001197670142E0C40ED11CCA14DB0478F17E
:103B300047018A189B08640142E0C40ED11C12960A
:103B4000BC9012971396AC91B5E0CB16D10440F01F
:103B5000B282A38391828082D9018D939C9309C004
:103B60000E5F1F4F0E0D1F1DF90111830083EB2DFA
:103B7000FA2F6115710531F0DB011396FC93EE937A
:103B8000129744C0F0936003E0935F033FC06D91D0
:103B90007C9111976616770608F43B01BD011296D9
:103BA0000D90BC91A02DB4CF60915D0370915E0328
:103BB00068157905E9F468167906D0F4409100019A
:103BC000509101014115510541F44DB75EB7609127
:103BD000040170910501461B570BE417F507C0F46B
:103BE000F0935E03E0935D03F901918380830EC03F
:103BF0000E941E1C7C01009759F0A801BE010E9482
:103C00001F1ECE010E94B61CC70104C0CE0102C017
:103C100080E090E0CDB7DEB7EEE00C94981EFB019B
:103C2000DC0105900D920020E1F70895FC0105905C
:103C30000020E9F7809590958E0F9F1F0895FB0156
:103C4000DC0102C001900D9241505040D8F7089518
:103C5000FB01DC018D91019080190110D9F3990BC2
:103C60000895FB01DC0101900D920020E1F7089519
:103C70004532510520F4423010F00C94431EFB01F4
:103C80001082CB010895BB274A3031F4992322F4E6
:103C9000BDE2909581959F4F0C944F1EBB27FB0171
:103CA0005527AA27880F991FAA1FA41710F0A41B35
:103CB00083955051B9F7A05DAA3308F0A95DA1938F
:103CC000009779F7B111B1931192CB010C94681E52
:103CD000DC01FC01672F71917723E1F7329704C073
:103CE0007C916D9370836291AE17BF07C8F30895FE
:103CF0002F923F924F925F926F927F928F929F92FC
:103D0000AF92BF92CF92DF92EF92FF920F931F93E9
:103D1000CF93DF93CDB7DEB7CA1BDB0B0FB6F8949A
:103D2000DEBF0FBECDBF09942A88398848885F84DA
:103D30006E847D848C849B84AA84B984C884DF804B
:103D4000EE80FD800C811B81AA81B981CE0FD11D2F
:103D50000FB6F894DEBF0FBECDBFED01089512E09F
:103D6000CCE6D2E004C0FE010E940B1C2296CE36A7
:083D7000D107C9F7F894FFCF59
:103D780000006103800000E1000000000000010174
:103D8800585858585858583130304E6F646520008C
:103D98002073657420746F20006E6F6465000000E6
:103DA8000000860161016B010204EE0468016A01EA
:103DB800D601000000009909D909AB0AB50ACF0A53
:103DC800420A00000000A50C7B0B380D420D8F0D38
:103DD800140B150B120C5A0DBD0BE70B110B000041
:103DE8000000130ED111AD0D00000000B20EF90E47
:103DF800DC0EEC0EC80ED90E000000001010D11118
:103E0800920FAB0F9D0FEE0F000000007C11000019
:0C3E18000000721AD111E51A531B9B1B0D
:00000001FF
